{
  "contractName": "CrowdsaleBasic",
  "abi": [
    {
      "constant": true,
      "inputs": [],
      "name": "grindcoin",
      "outputs": [
        {
          "name": "",
          "type": "address"
        }
      ],
      "payable": false,
      "stateMutability": "view",
      "type": "function"
    },
    {
      "constant": true,
      "inputs": [],
      "name": "ethWallet",
      "outputs": [
        {
          "name": "",
          "type": "address"
        }
      ],
      "payable": false,
      "stateMutability": "view",
      "type": "function"
    },
    {
      "constant": true,
      "inputs": [],
      "name": "rate",
      "outputs": [
        {
          "name": "",
          "type": "uint256"
        }
      ],
      "payable": false,
      "stateMutability": "view",
      "type": "function"
    },
    {
      "constant": true,
      "inputs": [],
      "name": "weiRaised",
      "outputs": [
        {
          "name": "",
          "type": "uint256"
        }
      ],
      "payable": false,
      "stateMutability": "view",
      "type": "function"
    },
    {
      "inputs": [
        {
          "name": "_grindcoin",
          "type": "address"
        },
        {
          "name": "_ethWallet",
          "type": "address"
        },
        {
          "name": "_rate",
          "type": "uint256"
        }
      ],
      "payable": false,
      "stateMutability": "nonpayable",
      "type": "constructor"
    },
    {
      "payable": true,
      "stateMutability": "payable",
      "type": "fallback"
    },
    {
      "anonymous": false,
      "inputs": [
        {
          "indexed": true,
          "name": "purchaser",
          "type": "address"
        },
        {
          "indexed": true,
          "name": "beneficiary",
          "type": "address"
        },
        {
          "indexed": false,
          "name": "value",
          "type": "uint256"
        },
        {
          "indexed": false,
          "name": "amount",
          "type": "uint256"
        }
      ],
      "name": "TokenPurchase",
      "type": "event"
    },
    {
      "constant": true,
      "inputs": [],
      "name": "getWeiRaisedToDate",
      "outputs": [
        {
          "name": "",
          "type": "uint256"
        }
      ],
      "payable": false,
      "stateMutability": "view",
      "type": "function"
    },
    {
      "constant": false,
      "inputs": [
        {
          "name": "_beneficiary",
          "type": "address"
        }
      ],
      "name": "buyTokens",
      "outputs": [],
      "payable": true,
      "stateMutability": "payable",
      "type": "function"
    }
  ],
  "bytecode": "0x608060405234801561001057600080fd5b506040516060806106fa83398101806040528101908080519060200190929190805190602001909291908051906020019092919050505060008111151561005657600080fd5b600073ffffffffffffffffffffffffffffffffffffffff168273ffffffffffffffffffffffffffffffffffffffff161415151561009257600080fd5b600073ffffffffffffffffffffffffffffffffffffffff168373ffffffffffffffffffffffffffffffffffffffff16141515156100ce57600080fd5b8060028190555081600160006101000a81548173ffffffffffffffffffffffffffffffffffffffff021916908373ffffffffffffffffffffffffffffffffffffffff160217905550826000806101000a81548173ffffffffffffffffffffffffffffffffffffffff021916908373ffffffffffffffffffffffffffffffffffffffff160217905550600060038190555050505061058a806101706000396000f300608060405260043610610078576000357c0100000000000000000000000000000000000000000000000000000000900463ffffffff168063031236521461008357806309094f7a146100da5780632c4e722e146101315780634042b66f1461015c578063cb66664114610187578063ec8ac4d8146101b2575b610081336101e8565b005b34801561008f57600080fd5b506100986102b6565b604051808273ffffffffffffffffffffffffffffffffffffffff1673ffffffffffffffffffffffffffffffffffffffff16815260200191505060405180910390f35b3480156100e657600080fd5b506100ef6102db565b604051808273ffffffffffffffffffffffffffffffffffffffff1673ffffffffffffffffffffffffffffffffffffffff16815260200191505060405180910390f35b34801561013d57600080fd5b50610146610301565b6040518082815260200191505060405180910390f35b34801561016857600080fd5b50610171610307565b6040518082815260200191505060405180910390f35b34801561019357600080fd5b5061019c61030d565b6040518082815260200191505060405180910390f35b6101e6600480360381019080803573ffffffffffffffffffffffffffffffffffffffff1690602001909291905050506101e8565b005b6000803491506101f88383610317565b61020182610367565b90506102188260035461038590919063ffffffff16565b60038190555061022883826103a1565b8273ffffffffffffffffffffffffffffffffffffffff163373ffffffffffffffffffffffffffffffffffffffff167f623b3804fa71d67900d064613da8f94b9617215ee90799290593e1745087ad188484604051808381526020018281526020019250505060405180910390a361029f83836103af565b6102a76103b3565b6102b1838361041e565b505050565b6000809054906101000a900473ffffffffffffffffffffffffffffffffffffffff1681565b600160009054906101000a900473ffffffffffffffffffffffffffffffffffffffff1681565b60025481565b60035481565b6000600354905090565b600073ffffffffffffffffffffffffffffffffffffffff168273ffffffffffffffffffffffffffffffffffffffff161415151561035357600080fd5b6000811415151561036357600080fd5b5050565b600061037e6002548361042290919063ffffffff16565b9050919050565b6000818301905082811015151561039857fe5b80905092915050565b6103ab828261045a565b5050565b5050565b600160009054906101000a900473ffffffffffffffffffffffffffffffffffffffff1673ffffffffffffffffffffffffffffffffffffffff166108fc349081150290604051600060405180830381858888f1935050505015801561041b573d6000803e3d6000fd5b50565b5050565b6000808314156104355760009050610454565b818302905081838281151561044657fe5b0414151561045057fe5b8090505b92915050565b6000809054906101000a900473ffffffffffffffffffffffffffffffffffffffff1673ffffffffffffffffffffffffffffffffffffffff1663a9059cbb83836040518363ffffffff167c0100000000000000000000000000000000000000000000000000000000028152600401808373ffffffffffffffffffffffffffffffffffffffff1673ffffffffffffffffffffffffffffffffffffffff16815260200182815260200192505050602060405180830381600087803b15801561051e57600080fd5b505af1158015610532573d6000803e3d6000fd5b505050506040513d602081101561054857600080fd5b81019080805190602001909291905050505050505600a165627a7a72305820653323947ee454a5083b968266828425f2de454b909ead3fbe4153f02f1f94c40029",
  "source": "\r\n\r\npragma solidity ^0.4.23;\r\n\r\nimport \"../Utilities/SafeMath.sol\";\r\n\r\nimport \"../Token/GrindCoin.sol\";\r\n\r\n\r\ncontract CrowdsaleBasic {\r\n  using SafeMath for uint256;\r\n\r\n  // The token being sold\r\n  GrindCoin public grindcoin;\r\n\r\n  // Address where funds are collected\r\n  address public ethWallet;\r\n\r\n  // How many token units a buyer gets per wei\r\n  uint256 public rate;\r\n\r\n  // Amount of wei raised\r\n  uint256 public weiRaised;\r\n\r\n\r\n\r\n  event TokenPurchase(\r\n    address indexed purchaser,\r\n    address indexed beneficiary,\r\n    uint256 value,\r\n    uint256 amount\r\n  );\r\n\r\n\r\n  constructor(GrindCoin _grindcoin, address _ethWallet, uint256 _rate) public {\r\n    require(_rate > 0);\r\n    require(_ethWallet != address(0));\r\n    require(_grindcoin != address(0));\r\n\r\n    rate = _rate;\r\n    ethWallet = _ethWallet;\r\n    grindcoin = _grindcoin;\r\n    weiRaised = 0;\r\n  }\r\n\r\n  // -----------------------------------------\r\n  // Crowdsale external interface\r\n  // -----------------------------------------\r\n\r\n  /**\r\n   * @dev fallback function ***DO NOT OVERRIDE***\r\n   */\r\n function () external payable {\r\n    buyTokens(msg.sender);\r\n  }\r\n\r\n  function getWeiRaisedToDate() public view returns (uint){\r\n    return weiRaised;\r\n  }\r\n\r\n\r\n function buyTokens(address _beneficiary) public payable {\r\n\r\n    uint256 weiAmount = msg.value;\r\n    _preValidatePurchase(_beneficiary, weiAmount);\r\n\r\n    // calculate token amount to be created\r\n    uint256 tokens = _getTokenAmount(weiAmount);\r\n\r\n    // update state\r\n    weiRaised = weiRaised.add(weiAmount);\r\n\r\n    _processPurchase(_beneficiary, tokens);\r\n    emit TokenPurchase(\r\n      msg.sender,\r\n      _beneficiary,\r\n      weiAmount,\r\n      tokens\r\n    );\r\n\r\n    _updatePurchasingState(_beneficiary, weiAmount);\r\n\r\n    _forwardFunds();\r\n    _postValidatePurchase(_beneficiary, weiAmount);\r\n  }\r\n\r\n  // -----------------------------------------\r\n  // Internal interface (extensible)\r\n  // -----------------------------------------\r\n\r\n\r\n  function _preValidatePurchase(\r\n    address _beneficiary,\r\n    uint256 _weiAmount\r\n  )\r\n    internal\r\n  {\r\n    require(_beneficiary != address(0));\r\n    require(_weiAmount != 0);\r\n  }\r\n\r\n\r\n function _postValidatePurchase(\r\n    address _beneficiary,\r\n    uint256 _weiAmount\r\n  )\r\n    internal\r\n  {\r\n    // optional override\r\n  }\r\n\r\n\r\n  function _deliverTokens(\r\n    address _beneficiary,\r\n    uint256 _tokenAmount\r\n  )\r\n    internal\r\n  {\r\n    grindcoin.transfer(_beneficiary, _tokenAmount);\r\n  }\r\n\r\n\r\n  function _processPurchase(\r\n    address _beneficiary,\r\n    uint256 _tokenAmount\r\n  )\r\n    internal\r\n  {\r\n    _deliverTokens(_beneficiary, _tokenAmount);\r\n  }\r\n\r\n\r\n  function _updatePurchasingState(\r\n    address _beneficiary,\r\n    uint256 _weiAmount\r\n  )\r\n    internal\r\n  {\r\n    // optional override\r\n  }\r\n\r\n\r\n  function _getTokenAmount(uint256 _weiAmount)\r\n    internal view returns (uint256)\r\n  {\r\n    return _weiAmount.mul(rate);\r\n  }\r\n\r\n\r\n  function _forwardFunds() internal {\r\n    ethWallet.transfer(msg.value);\r\n  }\r\n}\r\n",
  "sourcePath": "C:\\Users\\Utente\\github\\solidity\\coin\\contracts\\Crowdsale\\CrowdsaleBasic.sol",
  "compiler": {
    "name": "solc",
    "version": "0.4.23+commit.124ca40d.Emscripten.clang"
  },
  "schemaVersion": "2.0.0",
  "updatedAt": "2018-05-18T14:02:19.784Z"
}