{
  "contractName": "Crowdsale",
  "abi": [
    {
      "inputs": [
        {
          "name": "token",
          "type": "address"
        },
        {
          "name": "start",
          "type": "uint256"
        },
        {
          "name": "end",
          "type": "uint256"
        },
        {
          "name": "priceStart",
          "type": "uint256"
        },
        {
          "name": "priceEnd",
          "type": "uint256"
        },
        {
          "name": "limit",
          "type": "uint256"
        }
      ],
      "payable": false,
      "stateMutability": "nonpayable",
      "type": "constructor"
    },
    {
      "payable": true,
      "stateMutability": "payable",
      "type": "fallback"
    },
    {
      "anonymous": false,
      "inputs": [
        {
          "indexed": false,
          "name": "beneficiary",
          "type": "address"
        },
        {
          "indexed": false,
          "name": "amount",
          "type": "uint256"
        }
      ],
      "name": "Buy",
      "type": "event"
    },
    {
      "constant": true,
      "inputs": [],
      "name": "getCurrentPrice",
      "outputs": [
        {
          "name": "",
          "type": "uint256"
        }
      ],
      "payable": false,
      "stateMutability": "view",
      "type": "function"
    },
    {
      "constant": false,
      "inputs": [],
      "name": "buy",
      "outputs": [],
      "payable": true,
      "stateMutability": "payable",
      "type": "function"
    },
    {
      "constant": false,
      "inputs": [
        {
          "name": "beneficiary",
          "type": "address"
        }
      ],
      "name": "buyFor",
      "outputs": [],
      "payable": true,
      "stateMutability": "payable",
      "type": "function"
    },
    {
      "constant": false,
      "inputs": [
        {
          "name": "",
          "type": "address"
        },
        {
          "name": "_value",
          "type": "uint256"
        },
        {
          "name": "",
          "type": "bytes"
        }
      ],
      "name": "tokenFallback",
      "outputs": [],
      "payable": false,
      "stateMutability": "nonpayable",
      "type": "function"
    },
    {
      "constant": true,
      "inputs": [],
      "name": "availableBalance",
      "outputs": [
        {
          "name": "",
          "type": "uint256"
        }
      ],
      "payable": false,
      "stateMutability": "view",
      "type": "function"
    }
  ],
  "bytecode": "0x608060405234801561001057600080fd5b5060405160c080610762833981018060405281019080805190602001909291908051906020019092919080519060200190929190805190602001909291908051906020019092919080519060200190929190505050856000806101000a81548173ffffffffffffffffffffffffffffffffffffffff021916908373ffffffffffffffffffffffffffffffffffffffff1602179055508460018190555083600281905550826003819055508160048190555080600581905550505050505050610685806100dd6000396000f30060806040526004361061006d576000357c0100000000000000000000000000000000000000000000000000000000900463ffffffff1680636f0b518014610072578063a6f2ae3a146100a8578063ab2f0e51146100b2578063c0ee0b8a146100dd578063eb91d37e14610170575b600080fd5b6100a6600480360381019080803573ffffffffffffffffffffffffffffffffffffffff16906020019092919050505061019b565b005b6100b061048e565b005b3480156100be57600080fd5b506100c7610499565b6040518082815260200191505060405180910390f35b3480156100e957600080fd5b5061016e600480360381019080803573ffffffffffffffffffffffffffffffffffffffff16906020019092919080359060200190929190803590602001908201803590602001908080601f01602080910402602001604051908101604052809392919081815260200183838082843782019150505050505091929192905050506104a3565b005b34801561017c57600080fd5b5061018561051e565b6040518082815260200191505060405180910390f35b6000806006541115156101ad57600080fd5b60015443101580156101c0575060025443105b15156101cb57600080fd5b81346000811115156101d957fe5b6101f36101e461051e565b826105ae90919063ffffffff16565b9050806005541015151561020357fe5b61025581600760008573ffffffffffffffffffffffffffffffffffffffff1673ffffffffffffffffffffffffffffffffffffffff168152602001908152602001600020546105c490919063ffffffff16565b6005541015151561026257fe5b61026b346105e0565b92506000809054906101000a900473ffffffffffffffffffffffffffffffffffffffff1673ffffffffffffffffffffffffffffffffffffffff1663a9059cbb85856040518363ffffffff167c0100000000000000000000000000000000000000000000000000000000028152600401808373ffffffffffffffffffffffffffffffffffffffff1673ffffffffffffffffffffffffffffffffffffffff16815260200182815260200192505050602060405180830381600087803b15801561033157600080fd5b505af1158015610345573d6000803e3d6000fd5b505050506040513d602081101561035b57600080fd5b8101908080519060200190929190505050506103828360065461060890919063ffffffff16565b6006819055506103da83600760008773ffffffffffffffffffffffffffffffffffffffff1673ffffffffffffffffffffffffffffffffffffffff168152602001908152602001600020546105c490919063ffffffff16565b600760008673ffffffffffffffffffffffffffffffffffffffff1673ffffffffffffffffffffffffffffffffffffffff168152602001908152602001600020819055507fe3d4187f6ca4248660cc0ac8b8056515bac4a8132be2eca31d6d0cc170722a7e8484604051808373ffffffffffffffffffffffffffffffffffffffff1673ffffffffffffffffffffffffffffffffffffffff1681526020018281526020019250505060405180910390a150505050565b6104973361019b565b565b6000600654905090565b6000809054906101000a900473ffffffffffffffffffffffffffffffffffffffff1673ffffffffffffffffffffffffffffffffffffffff163373ffffffffffffffffffffffffffffffffffffffff161415156104fe57600080fd5b610513826006546105c490919063ffffffff16565b600681905550505050565b6000806000806105396001544361060890919063ffffffff16565b925061055260015460025461060890919063ffffffff16565b915061056b60035460045461060890919063ffffffff16565b90506105a661059583610587848761062190919063ffffffff16565b6105ae90919063ffffffff16565b6003546105c490919063ffffffff16565b935050505090565b600081838115156105bb57fe5b04905092915050565b600081830190508281101515156105d757fe5b80905092915050565b6000806105eb61051e565b905061060081846105ae90919063ffffffff16565b915050919050565b600082821115151561061657fe5b818303905092915050565b6000808314156106345760009050610653565b818302905081838281151561064557fe5b0414151561064f57fe5b8090505b929150505600a165627a7a72305820f428c908b0c455b3f4755a2e2bf9a985d66d14c2e4ef2732b860df71db79c4320029",
  "source": "pragma solidity ^0.4.23;\r\n\r\nimport \"../Token/ERC223ReceivingContract.sol\";\r\nimport \"../Utilities/SafeMath.sol\";\r\nimport \"../Utilities/Ownable.sol\";\r\nimport \"../Token/GrindCoin.sol\";\r\nimport \"../Token/Token.sol\";\r\n\r\ncontract Crowdsale is ERC223ReceivingContract {\r\n\r\n  using SafeMath for uint;\r\n\r\n  Token private _token;\r\n\r\n  uint private _start;\r\n  uint private _end;\r\n\r\n  uint private _priceStart;\r\n  uint private _priceEnd;\r\n\r\n\r\n  uint private _limit;\r\n  uint private _available;\r\n\r\n  mapping (address => uint) private _limits;\r\n\r\n  event Buy(address beneficiary, uint amount);\r\n\r\n  modifier available() {\r\n    require(_available > 0);\r\n    require(block.number >= _start && block.number < _end);\r\n    _;\r\n  }\r\n\r\n  modifier isToken() {\r\n    require(msg.sender == address(_token));\r\n    _;\r\n  }\r\n\r\n    modifier valid(address to, uint amount) {\r\n    assert(amount > 0);\r\n    amount = amount.div(getCurrentPrice());\r\n    assert(_limit >= amount);\r\n    assert(_limit >= _limits[to].add(amount));\r\n    _;\r\n  }\r\n\r\n  constructor(address token, uint start, uint end, uint priceStart,uint priceEnd, uint limit)\r\n      public {\r\n      _token = Token(token);\r\n      _start = start;\r\n      _end = end;\r\n      _priceStart = priceStart;\r\n      _priceEnd = priceEnd;\r\n      _limit = limit;\r\n  }\r\n\r\n  function getCurrentPrice() public view returns (uint256) {\r\n\r\n  uint256 elapsedTime = block.number.sub(_start);\r\n  uint256 timeRange = _end.sub(_start);\r\n  uint256 rateRange = _priceEnd.sub(_priceStart);\r\n  return _priceStart.add(elapsedTime.mul(rateRange).div(timeRange));\r\n}\r\nfunction _getTokenAmount(uint256 _weiAmount) internal view returns (uint256) {\r\n  uint256 currentPrice = getCurrentPrice();\r\n  return _weiAmount.div(currentPrice);\r\n}\r\n\r\n\r\n  function ()\r\n      public\r\n      payable {\r\n      // Not enough gas for the transaction so prevent users from sending ether\r\n      revert();\r\n  }\r\n\r\n  function buy()\r\n      public\r\n      payable {\r\n      return buyFor(msg.sender);\r\n  }\r\n\r\n  function buyFor(address beneficiary)\r\n      public\r\n      available\r\n      valid(beneficiary, msg.value)\r\n      payable {\r\n\r\n      uint amount = _getTokenAmount(msg.value);\r\n\r\n\r\n      _token.transfer(beneficiary, amount);\r\n      _available = _available.sub(amount);\r\n      _limits[beneficiary] = _limits[beneficiary].add(amount);\r\n      emit Buy(beneficiary, amount);\r\n  }\r\n\r\n  function tokenFallback(address, uint _value, bytes)\r\n      isToken\r\n      public {\r\n      _available = _available.add(_value);\r\n  }\r\n\r\n  function availableBalance()\r\n    view\r\n    public\r\n    returns (uint) {\r\n    return _available;\r\n  }\r\n}\r\n",
  "sourcePath": "C:\\Users\\Utente\\github\\solidity\\coin\\contracts\\Crowdsale\\Crowdsale.sol",
  "compiler": {
    "name": "solc",
    "version": "0.4.23+commit.124ca40d.Emscripten.clang"
  },
  "schemaVersion": "2.0.0",
  "updatedAt": "2018-05-24T14:39:44.727Z"
}