{
  "contractName": "GrindCoinCrowdsale",
  "abi": [
    {
      "constant": true,
      "inputs": [],
      "name": "finalRate",
      "outputs": [
        {
          "name": "",
          "type": "uint256"
        }
      ],
      "payable": false,
      "stateMutability": "view",
      "type": "function"
    },
    {
      "constant": true,
      "inputs": [
        {
          "name": "",
          "type": "address"
        }
      ],
      "name": "balances",
      "outputs": [
        {
          "name": "",
          "type": "uint256"
        }
      ],
      "payable": false,
      "stateMutability": "view",
      "type": "function"
    },
    {
      "constant": true,
      "inputs": [],
      "name": "goal",
      "outputs": [
        {
          "name": "",
          "type": "uint256"
        }
      ],
      "payable": false,
      "stateMutability": "view",
      "type": "function"
    },
    {
      "constant": true,
      "inputs": [],
      "name": "weiRaised",
      "outputs": [
        {
          "name": "",
          "type": "uint256"
        }
      ],
      "payable": false,
      "stateMutability": "view",
      "type": "function"
    },
    {
      "constant": true,
      "inputs": [],
      "name": "closingTime",
      "outputs": [
        {
          "name": "",
          "type": "uint256"
        }
      ],
      "payable": false,
      "stateMutability": "view",
      "type": "function"
    },
    {
      "constant": true,
      "inputs": [],
      "name": "walletVault",
      "outputs": [
        {
          "name": "",
          "type": "address"
        }
      ],
      "payable": false,
      "stateMutability": "view",
      "type": "function"
    },
    {
      "constant": false,
      "inputs": [],
      "name": "renounceOwnership",
      "outputs": [],
      "payable": false,
      "stateMutability": "nonpayable",
      "type": "function"
    },
    {
      "constant": true,
      "inputs": [],
      "name": "isFinalized",
      "outputs": [
        {
          "name": "",
          "type": "bool"
        }
      ],
      "payable": false,
      "stateMutability": "view",
      "type": "function"
    },
    {
      "constant": true,
      "inputs": [],
      "name": "owner",
      "outputs": [
        {
          "name": "",
          "type": "address"
        }
      ],
      "payable": false,
      "stateMutability": "view",
      "type": "function"
    },
    {
      "constant": true,
      "inputs": [],
      "name": "initialRate",
      "outputs": [
        {
          "name": "",
          "type": "uint256"
        }
      ],
      "payable": false,
      "stateMutability": "view",
      "type": "function"
    },
    {
      "constant": true,
      "inputs": [],
      "name": "openingTime",
      "outputs": [
        {
          "name": "",
          "type": "uint256"
        }
      ],
      "payable": false,
      "stateMutability": "view",
      "type": "function"
    },
    {
      "constant": true,
      "inputs": [],
      "name": "tokenWallet",
      "outputs": [
        {
          "name": "",
          "type": "address"
        }
      ],
      "payable": false,
      "stateMutability": "view",
      "type": "function"
    },
    {
      "constant": false,
      "inputs": [
        {
          "name": "newOwner",
          "type": "address"
        }
      ],
      "name": "transferOwnership",
      "outputs": [],
      "payable": false,
      "stateMutability": "nonpayable",
      "type": "function"
    },
    {
      "constant": true,
      "inputs": [],
      "name": "token",
      "outputs": [
        {
          "name": "",
          "type": "address"
        }
      ],
      "payable": false,
      "stateMutability": "view",
      "type": "function"
    },
    {
      "inputs": [
        {
          "name": "_token",
          "type": "address"
        },
        {
          "name": "_walletVault",
          "type": "address"
        },
        {
          "name": "_tokenWallet",
          "type": "address"
        },
        {
          "name": "_initialRate",
          "type": "uint256"
        },
        {
          "name": "_finalRate",
          "type": "uint256"
        },
        {
          "name": "_goal",
          "type": "uint256"
        },
        {
          "name": "_openingTime",
          "type": "uint256"
        },
        {
          "name": "_closingTime",
          "type": "uint256"
        }
      ],
      "payable": false,
      "stateMutability": "nonpayable",
      "type": "constructor"
    },
    {
      "payable": true,
      "stateMutability": "payable",
      "type": "fallback"
    },
    {
      "anonymous": false,
      "inputs": [
        {
          "indexed": true,
          "name": "purchaser",
          "type": "address"
        },
        {
          "indexed": true,
          "name": "beneficiary",
          "type": "address"
        },
        {
          "indexed": false,
          "name": "value",
          "type": "uint256"
        },
        {
          "indexed": false,
          "name": "amount",
          "type": "uint256"
        }
      ],
      "name": "TokenPurchase",
      "type": "event"
    },
    {
      "anonymous": false,
      "inputs": [],
      "name": "Finalized",
      "type": "event"
    },
    {
      "anonymous": false,
      "inputs": [
        {
          "indexed": true,
          "name": "previousOwner",
          "type": "address"
        }
      ],
      "name": "OwnershipRenounced",
      "type": "event"
    },
    {
      "anonymous": false,
      "inputs": [
        {
          "indexed": true,
          "name": "previousOwner",
          "type": "address"
        },
        {
          "indexed": true,
          "name": "newOwner",
          "type": "address"
        }
      ],
      "name": "OwnershipTransferred",
      "type": "event"
    },
    {
      "constant": true,
      "inputs": [],
      "name": "getCurrentRate",
      "outputs": [
        {
          "name": "",
          "type": "uint256"
        }
      ],
      "payable": false,
      "stateMutability": "view",
      "type": "function"
    },
    {
      "constant": false,
      "inputs": [
        {
          "name": "_beneficiary",
          "type": "address"
        }
      ],
      "name": "buyTokens",
      "outputs": [],
      "payable": true,
      "stateMutability": "payable",
      "type": "function"
    },
    {
      "constant": false,
      "inputs": [],
      "name": "withdrawTokens",
      "outputs": [],
      "payable": false,
      "stateMutability": "nonpayable",
      "type": "function"
    },
    {
      "constant": true,
      "inputs": [],
      "name": "remainingTokens",
      "outputs": [
        {
          "name": "",
          "type": "uint256"
        }
      ],
      "payable": false,
      "stateMutability": "view",
      "type": "function"
    },
    {
      "constant": true,
      "inputs": [],
      "name": "hasClosed",
      "outputs": [
        {
          "name": "",
          "type": "bool"
        }
      ],
      "payable": false,
      "stateMutability": "view",
      "type": "function"
    },
    {
      "constant": true,
      "inputs": [],
      "name": "goalReached",
      "outputs": [
        {
          "name": "",
          "type": "bool"
        }
      ],
      "payable": false,
      "stateMutability": "view",
      "type": "function"
    },
    {
      "constant": false,
      "inputs": [],
      "name": "claimRefund",
      "outputs": [],
      "payable": false,
      "stateMutability": "nonpayable",
      "type": "function"
    },
    {
      "constant": false,
      "inputs": [],
      "name": "finalize",
      "outputs": [],
      "payable": false,
      "stateMutability": "nonpayable",
      "type": "function"
    }
  ],
  "bytecode": "0x60806040526000600a60006101000a81548160ff0219169083151502179055503480156200002c57600080fd5b5060405161010080620023858339810180604052810190808051906020019092919080519060200190929190805190602001909291908051906020019092919080519060200190929190805190602001909291908051906020019092919080519060200190929190505050336000806101000a81548173ffffffffffffffffffffffffffffffffffffffff021916908373ffffffffffffffffffffffffffffffffffffffff160217905550428210151515620000e757600080fd5b818110151515620000f757600080fd5b600073ffffffffffffffffffffffffffffffffffffffff168673ffffffffffffffffffffffffffffffffffffffff16141515156200013457600080fd5b60008873ffffffffffffffffffffffffffffffffffffffff166370a08231886040518263ffffffff167c0100000000000000000000000000000000000000000000000000000000028152600401808273ffffffffffffffffffffffffffffffffffffffff1673ffffffffffffffffffffffffffffffffffffffff168152602001915050602060405180830381600087803b158015620001d257600080fd5b505af1158015620001e7573d6000803e3d6000fd5b505050506040513d6020811015620001fe57600080fd5b81019080805190602001909291905050501115156200021c57600080fd5b600073ffffffffffffffffffffffffffffffffffffffff168773ffffffffffffffffffffffffffffffffffffffff16141515156200025957600080fd5b8385101515156200026957600080fd5b6000841115156200027957600080fd5b6000831115156200028957600080fd5b87600160006101000a81548173ffffffffffffffffffffffffffffffffffffffff021916908373ffffffffffffffffffffffffffffffffffffffff16021790555086620002d5620003db565b808273ffffffffffffffffffffffffffffffffffffffff1673ffffffffffffffffffffffffffffffffffffffff168152602001915050604051809103906000f08015801562000328573d6000803e3d6000fd5b50600260006101000a81548173ffffffffffffffffffffffffffffffffffffffff021916908373ffffffffffffffffffffffffffffffffffffffff16021790555085600360006101000a81548173ffffffffffffffffffffffffffffffffffffffff021916908373ffffffffffffffffffffffffffffffffffffffff16021790555084600481905550836005819055508260078190555081600881905550806009819055505050505050505050620003ec565b604051610bdf80620017a683390190565b6113aa80620003fc6000396000f300608060405260043610610128576000357c0100000000000000000000000000000000000000000000000000000000900463ffffffff1680631515bc2b14610133578063211061091461016257806327e235e31461018d57806340193883146101e45780634042b66f1461020f5780634b6753bc1461023a5780634bb278f3146102655780636a988cc81461027c578063715018a6146102d35780637d3d6522146102ea5780638d4e4083146103195780638d8f2adb146103485780638da5cb5b1461035f5780639e51051f146103b6578063b5545a3c146103e1578063b7a8807c146103f8578063bf58390314610423578063bff99c6c1461044e578063ec8ac4d8146104a5578063f2fde38b146104db578063f7fb07b01461051e578063fc0c546a14610549575b610131336105a0565b005b34801561013f57600080fd5b50610148610671565b604051808215151515815260200191505060405180910390f35b34801561016e57600080fd5b5061017761067d565b6040518082815260200191505060405180910390f35b34801561019957600080fd5b506101ce600480360381019080803573ffffffffffffffffffffffffffffffffffffffff169060200190929190505050610683565b6040518082815260200191505060405180910390f35b3480156101f057600080fd5b506101f961069b565b6040518082815260200191505060405180910390f35b34801561021b57600080fd5b506102246106a1565b6040518082815260200191505060405180910390f35b34801561024657600080fd5b5061024f6106a7565b6040518082815260200191505060405180910390f35b34801561027157600080fd5b5061027a6106ad565b005b34801561028857600080fd5b50610291610788565b604051808273ffffffffffffffffffffffffffffffffffffffff1673ffffffffffffffffffffffffffffffffffffffff16815260200191505060405180910390f35b3480156102df57600080fd5b506102e86107ae565b005b3480156102f657600080fd5b506102ff6108b0565b604051808215151515815260200191505060405180910390f35b34801561032557600080fd5b5061032e6108bf565b604051808215151515815260200191505060405180910390f35b34801561035457600080fd5b5061035d6108d2565b005b34801561036b57600080fd5b5061037461098a565b604051808273ffffffffffffffffffffffffffffffffffffffff1673ffffffffffffffffffffffffffffffffffffffff16815260200191505060405180910390f35b3480156103c257600080fd5b506103cb6109af565b6040518082815260200191505060405180910390f35b3480156103ed57600080fd5b506103f66109b5565b005b34801561040457600080fd5b5061040d610abb565b6040518082815260200191505060405180910390f35b34801561042f57600080fd5b50610438610ac1565b6040518082815260200191505060405180910390f35b34801561045a57600080fd5b50610463610c16565b604051808273ffffffffffffffffffffffffffffffffffffffff1673ffffffffffffffffffffffffffffffffffffffff16815260200191505060405180910390f35b6104d9600480360381019080803573ffffffffffffffffffffffffffffffffffffffff1690602001909291905050506105a0565b005b3480156104e757600080fd5b5061051c600480360381019080803573ffffffffffffffffffffffffffffffffffffffff169060200190929190505050610c3c565b005b34801561052a57600080fd5b50610533610d91565b6040518082815260200191505060405180910390f35b34801561055557600080fd5b5061055e610e21565b604051808273ffffffffffffffffffffffffffffffffffffffff1673ffffffffffffffffffffffffffffffffffffffff16815260200191505060405180910390f35b60008067016345785d8a000034101515156105ba57600080fd5b3491506105c78383610e47565b6105d082610eb6565b90506105e782600654610ede90919063ffffffff16565b6006819055506105f78382610efa565b8273ffffffffffffffffffffffffffffffffffffffff163373ffffffffffffffffffffffffffffffffffffffff167f623b3804fa71d67900d064613da8f94b9617215ee90799290593e1745087ad188484604051808381526020018281526020019250505060405180910390a361066c610f93565b505050565b60006009544211905090565b60055481565b600b6020528060005260406000206000915090505481565b60075481565b60065481565b60095481565b6000809054906101000a900473ffffffffffffffffffffffffffffffffffffffff1673ffffffffffffffffffffffffffffffffffffffff163373ffffffffffffffffffffffffffffffffffffffff1614151561070857600080fd5b600a60009054906101000a900460ff1615151561072457600080fd5b61072c610671565b151561073757600080fd5b61073f61106b565b7f6823b073d48d6e3a7d385eeb601452d680e74bb46afe3255a7d778f3a9b1768160405160405180910390a16001600a60006101000a81548160ff021916908315150217905550565b600260009054906101000a900473ffffffffffffffffffffffffffffffffffffffff1681565b6000809054906101000a900473ffffffffffffffffffffffffffffffffffffffff1673ffffffffffffffffffffffffffffffffffffffff163373ffffffffffffffffffffffffffffffffffffffff1614151561080957600080fd5b6000809054906101000a900473ffffffffffffffffffffffffffffffffffffffff1673ffffffffffffffffffffffffffffffffffffffff167ff8df31144d9c2f0f6b59d69b8b98abd5459d07f2742c4df920b25aae33c6482060405160405180910390a260008060006101000a81548173ffffffffffffffffffffffffffffffffffffffff021916908373ffffffffffffffffffffffffffffffffffffffff160217905550565b60006007546006541015905090565b600a60009054906101000a900460ff1681565b60006108dc610671565b15156108e757600080fd5b600b60003373ffffffffffffffffffffffffffffffffffffffff1673ffffffffffffffffffffffffffffffffffffffff16815260200190815260200160002054905060008111151561093857600080fd5b6000600b60003373ffffffffffffffffffffffffffffffffffffffff1673ffffffffffffffffffffffffffffffffffffffff1681526020019081526020016000208190555061098733826111bc565b50565b6000809054906101000a900473ffffffffffffffffffffffffffffffffffffffff1681565b60045481565b600a60009054906101000a900460ff1615156109d057600080fd5b6109d86108b0565b1515156109e457600080fd5b600260009054906101000a900473ffffffffffffffffffffffffffffffffffffffff1673ffffffffffffffffffffffffffffffffffffffff1663fa89401a336040518263ffffffff167c0100000000000000000000000000000000000000000000000000000000028152600401808273ffffffffffffffffffffffffffffffffffffffff1673ffffffffffffffffffffffffffffffffffffffff168152602001915050600060405180830381600087803b158015610aa157600080fd5b505af1158015610ab5573d6000803e3d6000fd5b50505050565b60085481565b6000600160009054906101000a900473ffffffffffffffffffffffffffffffffffffffff1673ffffffffffffffffffffffffffffffffffffffff1663dd62ed3e600360009054906101000a900473ffffffffffffffffffffffffffffffffffffffff16306040518363ffffffff167c0100000000000000000000000000000000000000000000000000000000028152600401808373ffffffffffffffffffffffffffffffffffffffff1673ffffffffffffffffffffffffffffffffffffffff1681526020018273ffffffffffffffffffffffffffffffffffffffff1673ffffffffffffffffffffffffffffffffffffffff16815260200192505050602060405180830381600087803b158015610bd657600080fd5b505af1158015610bea573d6000803e3d6000fd5b505050506040513d6020811015610c0057600080fd5b8101908080519060200190929190505050905090565b600360009054906101000a900473ffffffffffffffffffffffffffffffffffffffff1681565b6000809054906101000a900473ffffffffffffffffffffffffffffffffffffffff1673ffffffffffffffffffffffffffffffffffffffff163373ffffffffffffffffffffffffffffffffffffffff16141515610c9757600080fd5b600073ffffffffffffffffffffffffffffffffffffffff168173ffffffffffffffffffffffffffffffffffffffff1614151515610cd357600080fd5b8073ffffffffffffffffffffffffffffffffffffffff166000809054906101000a900473ffffffffffffffffffffffffffffffffffffffff1673ffffffffffffffffffffffffffffffffffffffff167f8be0079c531659141344cd1fd0a4f28419497f9722a3daafe3b4186f6b6457e060405160405180910390a3806000806101000a81548173ffffffffffffffffffffffffffffffffffffffff021916908373ffffffffffffffffffffffffffffffffffffffff16021790555050565b600080600080610dac6008544261131790919063ffffffff16565b9250610dc560085460095461131790919063ffffffff16565b9150610dde60055460045461131790919063ffffffff16565b9050610e19610e0883610dfa848761133090919063ffffffff16565b61136890919063ffffffff16565b60045461131790919063ffffffff16565b935050505090565b600160009054906101000a900473ffffffffffffffffffffffffffffffffffffffff1681565b6008544210158015610e5b57506009544211155b1515610e6657600080fd5b600073ffffffffffffffffffffffffffffffffffffffff168273ffffffffffffffffffffffffffffffffffffffff1614151515610ea257600080fd5b60008114151515610eb257600080fd5b5050565b600080610ec1610d91565b9050610ed6838261133090919063ffffffff16565b915050919050565b60008183019050828110151515610ef157fe5b80905092915050565b610f4c81600b60008573ffffffffffffffffffffffffffffffffffffffff1673ffffffffffffffffffffffffffffffffffffffff16815260200190815260200160002054610ede90919063ffffffff16565b600b60008473ffffffffffffffffffffffffffffffffffffffff1673ffffffffffffffffffffffffffffffffffffffff168152602001908152602001600020819055505050565b600260009054906101000a900473ffffffffffffffffffffffffffffffffffffffff1673ffffffffffffffffffffffffffffffffffffffff1663f340fa0134336040518363ffffffff167c0100000000000000000000000000000000000000000000000000000000028152600401808273ffffffffffffffffffffffffffffffffffffffff1673ffffffffffffffffffffffffffffffffffffffff1681526020019150506000604051808303818588803b15801561105057600080fd5b505af1158015611064573d6000803e3d6000fd5b5050505050565b6110736108b0565b1561111b57600260009054906101000a900473ffffffffffffffffffffffffffffffffffffffff1673ffffffffffffffffffffffffffffffffffffffff166343d726d66040518163ffffffff167c0100000000000000000000000000000000000000000000000000000000028152600401600060405180830381600087803b1580156110fe57600080fd5b505af1158015611112573d6000803e3d6000fd5b505050506111ba565b600260009054906101000a900473ffffffffffffffffffffffffffffffffffffffff1673ffffffffffffffffffffffffffffffffffffffff16638c52dc416040518163ffffffff167c0100000000000000000000000000000000000000000000000000000000028152600401600060405180830381600087803b1580156111a157600080fd5b505af11580156111b5573d6000803e3d6000fd5b505050505b565b600160009054906101000a900473ffffffffffffffffffffffffffffffffffffffff1673ffffffffffffffffffffffffffffffffffffffff166323b872dd600360009054906101000a900473ffffffffffffffffffffffffffffffffffffffff1684846040518463ffffffff167c0100000000000000000000000000000000000000000000000000000000028152600401808473ffffffffffffffffffffffffffffffffffffffff1673ffffffffffffffffffffffffffffffffffffffff1681526020018373ffffffffffffffffffffffffffffffffffffffff1673ffffffffffffffffffffffffffffffffffffffff1681526020018281526020019350505050602060405180830381600087803b1580156112d757600080fd5b505af11580156112eb573d6000803e3d6000fd5b505050506040513d602081101561130157600080fd5b8101908080519060200190929190505050505050565b600082821115151561132557fe5b818303905092915050565b6000808314156113435760009050611362565b818302905081838281151561135457fe5b0414151561135e57fe5b8090505b92915050565b6000818381151561137557fe5b049050929150505600a165627a7a72305820aec7d9260dd87264d171c35531937f79e89fa956e35d747443bef849639e19410029608060405234801561001057600080fd5b50604051602080610bdf83398101806040528101908080519060200190929190505050336000806101000a81548173ffffffffffffffffffffffffffffffffffffffff021916908373ffffffffffffffffffffffffffffffffffffffff160217905550600073ffffffffffffffffffffffffffffffffffffffff168173ffffffffffffffffffffffffffffffffffffffff16141515156100af57600080fd5b80600260006101000a81548173ffffffffffffffffffffffffffffffffffffffff021916908373ffffffffffffffffffffffffffffffffffffffff1602179055506000600260146101000a81548160ff0219169083600281111561010f57fe5b021790555050610abb806101246000396000f3006080604052600436106100a4576000357c0100000000000000000000000000000000000000000000000000000000900463ffffffff16806343d726d6146100a9578063521eb273146100c0578063715018a6146101175780638c52dc411461012e5780638da5cb5b14610145578063c19d93fb1461019c578063cb13cddb146101d5578063f2fde38b1461022c578063f340fa011461026f578063fa89401a146102a5575b600080fd5b3480156100b557600080fd5b506100be6102e8565b005b3480156100cc57600080fd5b506100d5610448565b604051808273ffffffffffffffffffffffffffffffffffffffff1673ffffffffffffffffffffffffffffffffffffffff16815260200191505060405180910390f35b34801561012357600080fd5b5061012c61046e565b005b34801561013a57600080fd5b50610143610570565b005b34801561015157600080fd5b5061015a610651565b604051808273ffffffffffffffffffffffffffffffffffffffff1673ffffffffffffffffffffffffffffffffffffffff16815260200191505060405180910390f35b3480156101a857600080fd5b506101b1610676565b604051808260028111156101c157fe5b60ff16815260200191505060405180910390f35b3480156101e157600080fd5b50610216600480360381019080803573ffffffffffffffffffffffffffffffffffffffff169060200190929190505050610689565b6040518082815260200191505060405180910390f35b34801561023857600080fd5b5061026d600480360381019080803573ffffffffffffffffffffffffffffffffffffffff1690602001909291905050506106a1565b005b6102a3600480360381019080803573ffffffffffffffffffffffffffffffffffffffff1690602001909291905050506107f6565b005b3480156102b157600080fd5b506102e6600480360381019080803573ffffffffffffffffffffffffffffffffffffffff16906020019092919050505061091d565b005b6000809054906101000a900473ffffffffffffffffffffffffffffffffffffffff1673ffffffffffffffffffffffffffffffffffffffff163373ffffffffffffffffffffffffffffffffffffffff1614151561034357600080fd5b6000600281111561035057fe5b600260149054906101000a900460ff16600281111561036b57fe5b14151561037757600080fd5b60028060146101000a81548160ff0219169083600281111561039557fe5b02179055507f1cdde67b72a90f19919ac732a437ac2f7a10fc128d28c2a6e525d89ce5cd9d3a60405160405180910390a1600260009054906101000a900473ffffffffffffffffffffffffffffffffffffffff1673ffffffffffffffffffffffffffffffffffffffff166108fc3073ffffffffffffffffffffffffffffffffffffffff16319081150290604051600060405180830381858888f19350505050158015610445573d6000803e3d6000fd5b50565b600260009054906101000a900473ffffffffffffffffffffffffffffffffffffffff1681565b6000809054906101000a900473ffffffffffffffffffffffffffffffffffffffff1673ffffffffffffffffffffffffffffffffffffffff163373ffffffffffffffffffffffffffffffffffffffff161415156104c957600080fd5b6000809054906101000a900473ffffffffffffffffffffffffffffffffffffffff1673ffffffffffffffffffffffffffffffffffffffff167ff8df31144d9c2f0f6b59d69b8b98abd5459d07f2742c4df920b25aae33c6482060405160405180910390a260008060006101000a81548173ffffffffffffffffffffffffffffffffffffffff021916908373ffffffffffffffffffffffffffffffffffffffff160217905550565b6000809054906101000a900473ffffffffffffffffffffffffffffffffffffffff1673ffffffffffffffffffffffffffffffffffffffff163373ffffffffffffffffffffffffffffffffffffffff161415156105cb57600080fd5b600060028111156105d857fe5b600260149054906101000a900460ff1660028111156105f357fe5b1415156105ff57600080fd5b6001600260146101000a81548160ff0219169083600281111561061e57fe5b02179055507f599d8e5a83cffb867d051598c4d70e805d59802d8081c1c7d6dffc5b6aca2b8960405160405180910390a1565b6000809054906101000a900473ffffffffffffffffffffffffffffffffffffffff1681565b600260149054906101000a900460ff1681565b60016020528060005260406000206000915090505481565b6000809054906101000a900473ffffffffffffffffffffffffffffffffffffffff1673ffffffffffffffffffffffffffffffffffffffff163373ffffffffffffffffffffffffffffffffffffffff161415156106fc57600080fd5b600073ffffffffffffffffffffffffffffffffffffffff168173ffffffffffffffffffffffffffffffffffffffff161415151561073857600080fd5b8073ffffffffffffffffffffffffffffffffffffffff166000809054906101000a900473ffffffffffffffffffffffffffffffffffffffff1673ffffffffffffffffffffffffffffffffffffffff167f8be0079c531659141344cd1fd0a4f28419497f9722a3daafe3b4186f6b6457e060405160405180910390a3806000806101000a81548173ffffffffffffffffffffffffffffffffffffffff021916908373ffffffffffffffffffffffffffffffffffffffff16021790555050565b6000809054906101000a900473ffffffffffffffffffffffffffffffffffffffff1673ffffffffffffffffffffffffffffffffffffffff163373ffffffffffffffffffffffffffffffffffffffff1614151561085157600080fd5b6000600281111561085e57fe5b600260149054906101000a900460ff16600281111561087957fe5b14151561088557600080fd5b6108d734600160008473ffffffffffffffffffffffffffffffffffffffff1673ffffffffffffffffffffffffffffffffffffffff16815260200190815260200160002054610a7390919063ffffffff16565b600160008373ffffffffffffffffffffffffffffffffffffffff1673ffffffffffffffffffffffffffffffffffffffff1681526020019081526020016000208190555050565b60006001600281111561092c57fe5b600260149054906101000a900460ff16600281111561094757fe5b14151561095357600080fd5b600160008373ffffffffffffffffffffffffffffffffffffffff1673ffffffffffffffffffffffffffffffffffffffff1681526020019081526020016000205490506000600160008473ffffffffffffffffffffffffffffffffffffffff1673ffffffffffffffffffffffffffffffffffffffff168152602001908152602001600020819055508173ffffffffffffffffffffffffffffffffffffffff166108fc829081150290604051600060405180830381858888f19350505050158015610a20573d6000803e3d6000fd5b508173ffffffffffffffffffffffffffffffffffffffff167fd7dee2702d63ad89917b6a4da9981c90c4d24f8c2bdfd64c604ecae57d8d0651826040518082815260200191505060405180910390a25050565b60008183019050828110151515610a8657fe5b809050929150505600a165627a7a72305820b52a52fac8a20884c16a0555641b6f8a3c84fdcc2ad8cf3a7eaf96c2e94034d50029",
  "source": "pragma solidity ^0.4.23;\r\n\r\nimport \"../Utilities/SafeMath.sol\";\r\nimport \"../Utilities/Ownable.sol\";\r\nimport \"../Token/GrindCoin.sol\";\r\nimport \"./RefundVault.sol\";\r\n\r\n\r\ncontract GrindCoinCrowdsale is Ownable{\r\n\r\n  using SafeMath for uint256;\r\n\r\n  GrindCoin public token ; \r\n\r\n  RefundVault public walletVault;\r\n\r\n  address public tokenWallet;\r\n\r\n  uint256 public initialRate;\r\n  uint256 public finalRate;\r\n\r\n  uint256 public weiRaised;\r\n\r\n  uint256 public goal;\r\n\r\n  uint256 public openingTime;\r\n  uint256 public closingTime;\r\n\r\n  bool public isFinalized = false;\r\n\r\n  mapping(address => uint256) public balances;\r\n\r\n\r\n\r\n  modifier onlyWhileOpen {\r\n      // solium-disable-next-line security/no-block-members\r\n      require(block.timestamp >= openingTime && block.timestamp <= closingTime);\r\n      _;\r\n    }\r\n\r\n  event TokenPurchase(address indexed purchaser, address indexed beneficiary, uint256 value, uint256 amount);\r\n\r\n  event Finalized();\r\n\r\n\r\n\r\n    constructor  (\r\n      GrindCoin _token ,\r\n      address _walletVault,\r\n      address _tokenWallet,\r\n      uint256 _initialRate,\r\n      uint256 _finalRate,\r\n      uint256 _goal,\r\n      uint256 _openingTime,\r\n      uint256 _closingTime)\r\n      public {\r\n\r\n        require(_openingTime >= block.timestamp);\r\n        require(_closingTime >= _openingTime);\r\n        require(_tokenWallet != address(0));\r\n        require(_token.balanceOf(_tokenWallet)>0);\r\n        require(_walletVault != address(0));\r\n        require(_initialRate >= _finalRate);\r\n        require(_finalRate > 0);\r\n        require(_goal > 0);\r\n\r\n        token = _token;\r\n        walletVault =new RefundVault (_walletVault);\r\n        tokenWallet = _tokenWallet;\r\n        initialRate = _initialRate;\r\n        finalRate = _finalRate;\r\n        goal = _goal;\r\n        openingTime = _openingTime;\r\n        closingTime = _closingTime;\r\n\r\n    }\r\n\r\n    function () external payable {\r\n      buyTokens(msg.sender);\r\n    }\r\n\r\n    function getCurrentRate() public view returns (uint256) {\r\n      // solium-disable-next-line security/no-block-members\r\n      uint256 elapsedTime = block.timestamp.sub(openingTime);\r\n      uint256 timeRange = closingTime.sub(openingTime);\r\n      uint256 rateRange = initialRate.sub(finalRate);\r\n      return initialRate.sub(elapsedTime.mul(rateRange).div(timeRange));\r\n    }\r\n\r\n    function _getTokenAmount(uint256 _weiAmount) internal view returns (uint256) {\r\n      uint256 currentRate = getCurrentRate();\r\n      return currentRate.mul(_weiAmount);\r\n    }\r\n\r\n\r\n\r\n  function buyTokens(address _beneficiary) public payable {\r\n    // minimum contributions in wei (0.1 eth)\r\n    require(msg.value>=100000000000000000 );\r\n\r\n   uint256 weiAmount = msg.value;\r\n   _preValidatePurchase(_beneficiary, weiAmount);\r\n\r\n   // calculate token amount to be created\r\n   uint256 tokens = _getTokenAmount(weiAmount);\r\n\r\n   // update state\r\n   weiRaised = weiRaised.add(weiAmount);\r\n\r\n   _processPurchase(_beneficiary, tokens);\r\n   emit TokenPurchase(\r\n     msg.sender,\r\n     _beneficiary,\r\n     weiAmount,\r\n     tokens\r\n   );\r\n\r\n   _forwardFunds();\r\n\r\n }\r\n\r\n function _preValidatePurchase(address _beneficiary, uint256 _weiAmount) internal onlyWhileOpen {\r\n   require(_beneficiary != address(0));\r\n  require(_weiAmount != 0);\r\n }\r\n\r\n function withdrawTokens() public {\r\n   require(hasClosed());\r\n   uint256 amount = balances[msg.sender];\r\n   require(amount > 0);\r\n   balances[msg.sender] = 0;\r\n   _deliverTokens(msg.sender, amount);\r\n }\r\n\r\n function _processPurchase(address _beneficiary, uint256 _tokenAmount) internal {\r\n   balances[_beneficiary] = balances[_beneficiary].add(_tokenAmount);\r\n\r\n   }\r\n   function _deliverTokens(address _beneficiary, uint256 _tokenAmount) internal {\r\n    token.transferFrom(tokenWallet, _beneficiary, _tokenAmount);\r\n  }\r\n  function remainingTokens() public view returns (uint256) {\r\n    return token.allowance(tokenWallet, this);\r\n  }\r\n\r\n  function _forwardFunds() internal {\r\n    walletVault.deposit.value(msg.value)(msg.sender);\r\n  }\r\n\r\n  function hasClosed() public view returns (bool) {\r\n     // solium-disable-next-line security/no-block-members\r\n     return block.timestamp > closingTime;\r\n   }\r\n\r\n   function goalReached() public view returns (bool) {\r\n      return weiRaised >= goal;\r\n    }\r\n\r\n    function claimRefund() public {\r\n    require(isFinalized);\r\n    require(!goalReached());\r\n\r\n    walletVault.refund(msg.sender);\r\n  }\r\n\r\n\r\n      function finalize() public onlyOwner {\r\n        require(!isFinalized);\r\n        require(hasClosed());\r\n\r\n        finalization();\r\n        emit Finalized();\r\n\r\n        isFinalized = true;\r\n      }\r\n\r\n\r\n      function finalization() internal {\r\n          if (goalReached()) {\r\n            walletVault.close();\r\n          } else {\r\n            walletVault.enableRefunds();\r\n          }\r\n        }\r\n\r\n\r\n\r\n\r\n}\r\n",
  "sourcePath": "C:\\Users\\Utente\\github\\solidity\\coin\\contracts\\Crowdsale\\GrindCoinCrowdsale.sol",
  "compiler": {
    "name": "solc",
    "version": "0.4.23+commit.124ca40d.Emscripten.clang"
  },
  "schemaVersion": "2.0.0",
  "updatedAt": "2018-05-15T17:14:47.402Z"
}